:100000000C9434000C9446000C9446000C94480068
:100010000C9446000C9446000C9446000C94460048
:100020000C9446000C9446000C9446000C94460038
:100030000C9446000C9446000C9446000C94460028
:100040000C9446000C9446000C9446000C94460018
:100050000C9446000C9446000C9446000C94460008
:100060000C9446000C94460011241FBECFEFD8E03C
:10007000DEBFCDBF21E0A0E0B1E001C01D92A23003
:10008000B207E1F70E948F000C94EC000C94000082
:100090001F920F920FB60F9211248F931F9B04C0D3
:1000A00087E08093010103C080E7809301011E9BDC
:1000B00004C080E48093000103C084E080930001C9
:1000C0008F910F900FBE0F901F9018952FE18FEB1F
:1000D00092E0215080409040E1F700C0000085B1DF
:1000E000826085B9089585B18D7F85B98BB18F7B8D
:1000F0008BB98BB18F778BB908950E9473008BB148
:1001000080688BB98BB18F7B8BB908950E94730087
:100110008BB180648BB98BB18F778BB90895CF93F6
:10012000DF9300D01F92CDB7DEB719821A821B82EF
:10013000F89484B18F7B84B984B18F7784B98AB104
:100140008F7D8AB98AB180648AB98AB180688AB998
:1001500084B1826084B9E8E6F0E0808181608083C8
:10016000EBE6F0E08081806C808378940E947300DD
:1001700089B185FB882780F98B838B81882349F19E
:10018000998180910101981305C09A8180910001A5
:10019000981771F380910101873019F0803721F0B1
:1001A00005C00E947D0002C00E948600809101016E
:1001B000898380910001843019F0803421F005C0DA
:1001C0000E94660002C00E947300809100018A8331
:0C01D000CFCF0E947300CCCFF894FFCF7B
:00000001FF
