
Toy CAR.elf:     file format elf32-avr

Sections:
Idx Name          Size      VMA       LMA       File off  Algn
  0 .data         00000000  00800100  00800100  000001ae  2**0
                  CONTENTS, ALLOC, LOAD, DATA
  1 .text         0000015a  00000000  00000000  00000054  2**1
                  CONTENTS, ALLOC, LOAD, READONLY, CODE
  2 .comment      00000030  00000000  00000000  000001ae  2**0
                  CONTENTS, READONLY
  3 .note.gnu.avr.deviceinfo 00000040  00000000  00000000  000001e0  2**2
                  CONTENTS, READONLY
  4 .debug_info   000005f4  00000000  00000000  00000220  2**0
                  CONTENTS, READONLY, DEBUGGING
  5 .debug_abbrev 000005a2  00000000  00000000  00000814  2**0
                  CONTENTS, READONLY, DEBUGGING
  6 .debug_line   00000134  00000000  00000000  00000db6  2**0
                  CONTENTS, READONLY, DEBUGGING
  7 .debug_str    00000208  00000000  00000000  00000eea  2**0
                  CONTENTS, READONLY, DEBUGGING

Disassembly of section .text:

00000000 <__vectors>:
   0:	0c 94 34 00 	jmp	0x68	; 0x68 <__ctors_end>
   4:	0c 94 46 00 	jmp	0x8c	; 0x8c <__bad_interrupt>
   8:	0c 94 46 00 	jmp	0x8c	; 0x8c <__bad_interrupt>
   c:	0c 94 7b 00 	jmp	0xf6	; 0xf6 <__vector_3>
  10:	0c 94 46 00 	jmp	0x8c	; 0x8c <__bad_interrupt>
  14:	0c 94 46 00 	jmp	0x8c	; 0x8c <__bad_interrupt>
  18:	0c 94 46 00 	jmp	0x8c	; 0x8c <__bad_interrupt>
  1c:	0c 94 46 00 	jmp	0x8c	; 0x8c <__bad_interrupt>
  20:	0c 94 46 00 	jmp	0x8c	; 0x8c <__bad_interrupt>
  24:	0c 94 46 00 	jmp	0x8c	; 0x8c <__bad_interrupt>
  28:	0c 94 46 00 	jmp	0x8c	; 0x8c <__bad_interrupt>
  2c:	0c 94 46 00 	jmp	0x8c	; 0x8c <__bad_interrupt>
  30:	0c 94 46 00 	jmp	0x8c	; 0x8c <__bad_interrupt>
  34:	0c 94 46 00 	jmp	0x8c	; 0x8c <__bad_interrupt>
  38:	0c 94 46 00 	jmp	0x8c	; 0x8c <__bad_interrupt>
  3c:	0c 94 46 00 	jmp	0x8c	; 0x8c <__bad_interrupt>
  40:	0c 94 46 00 	jmp	0x8c	; 0x8c <__bad_interrupt>
  44:	0c 94 46 00 	jmp	0x8c	; 0x8c <__bad_interrupt>
  48:	0c 94 46 00 	jmp	0x8c	; 0x8c <__bad_interrupt>
  4c:	0c 94 46 00 	jmp	0x8c	; 0x8c <__bad_interrupt>
  50:	0c 94 46 00 	jmp	0x8c	; 0x8c <__bad_interrupt>
  54:	0c 94 46 00 	jmp	0x8c	; 0x8c <__bad_interrupt>
  58:	0c 94 46 00 	jmp	0x8c	; 0x8c <__bad_interrupt>
  5c:	0c 94 46 00 	jmp	0x8c	; 0x8c <__bad_interrupt>
  60:	0c 94 46 00 	jmp	0x8c	; 0x8c <__bad_interrupt>
  64:	0c 94 46 00 	jmp	0x8c	; 0x8c <__bad_interrupt>

00000068 <__ctors_end>:
  68:	11 24       	eor	r1, r1
  6a:	1f be       	out	0x3f, r1	; 63
  6c:	cf ef       	ldi	r28, 0xFF	; 255
  6e:	d8 e0       	ldi	r29, 0x08	; 8
  70:	de bf       	out	0x3e, r29	; 62
  72:	cd bf       	out	0x3d, r28	; 61

00000074 <__do_clear_bss>:
  74:	21 e0       	ldi	r18, 0x01	; 1
  76:	a0 e0       	ldi	r26, 0x00	; 0
  78:	b1 e0       	ldi	r27, 0x01	; 1
  7a:	01 c0       	rjmp	.+2      	; 0x7e <.do_clear_bss_start>

0000007c <.do_clear_bss_loop>:
  7c:	1d 92       	st	X+, r1

0000007e <.do_clear_bss_start>:
  7e:	a0 30       	cpi	r26, 0x00	; 0
  80:	b2 07       	cpc	r27, r18
  82:	e1 f7       	brne	.-8      	; 0x7c <.do_clear_bss_loop>
  84:	0e 94 4e 00 	call	0x9c	; 0x9c <main>
  88:	0c 94 ab 00 	jmp	0x156	; 0x156 <_exit>

0000008c <__bad_interrupt>:
  8c:	0c 94 00 00 	jmp	0	; 0x0 <__vectors>

00000090 <accelerate_car>:
  90:	29 9a       	sbi	0x05, 1	; 5
  92:	08 95       	ret

00000094 <stop_car>:
  94:	29 98       	cbi	0x05, 1	; 5
  96:	5e 98       	cbi	0x0b, 6	; 11
  98:	5f 98       	cbi	0x0b, 7	; 11
  9a:	08 95       	ret

0000009c <main>:
  9c:	cf 93       	push	r28
  9e:	df 93       	push	r29
  a0:	1f 92       	push	r1
  a2:	cd b7       	in	r28, 0x3d	; 61
  a4:	de b7       	in	r29, 0x3e	; 62
  a6:	19 82       	std	Y+1, r1	; 0x01
  a8:	f8 94       	cli
  aa:	26 98       	cbi	0x04, 6	; 4
  ac:	27 98       	cbi	0x04, 7	; 4
  ae:	55 98       	cbi	0x0a, 5	; 10
  b0:	56 9a       	sbi	0x0a, 6	; 10
  b2:	57 9a       	sbi	0x0a, 7	; 10
  b4:	21 9a       	sbi	0x04, 1	; 4
  b6:	80 91 68 00 	lds	r24, 0x0068	; 0x800068 <__TEXT_REGION_LENGTH__+0x7f8068>
  ba:	81 60       	ori	r24, 0x01	; 1
  bc:	80 93 68 00 	sts	0x0068, r24	; 0x800068 <__TEXT_REGION_LENGTH__+0x7f8068>
  c0:	80 91 6b 00 	lds	r24, 0x006B	; 0x80006b <__TEXT_REGION_LENGTH__+0x7f806b>
  c4:	80 6c       	ori	r24, 0xC0	; 192
  c6:	80 93 6b 00 	sts	0x006B, r24	; 0x80006b <__TEXT_REGION_LENGTH__+0x7f806b>
  ca:	78 94       	sei
  cc:	0e 94 4a 00 	call	0x94	; 0x94 <stop_car>
  d0:	89 b1       	in	r24, 0x09	; 9
  d2:	85 fb       	bst	r24, 5
  d4:	88 27       	eor	r24, r24
  d6:	80 f9       	bld	r24, 0
  d8:	89 83       	std	Y+1, r24	; 0x01
  da:	89 81       	ldd	r24, Y+1	; 0x01
  dc:	81 11       	cpse	r24, r1
  de:	f8 cf       	rjmp	.-16     	; 0xd0 <main+0x34>
  e0:	f5 cf       	rjmp	.-22     	; 0xcc <main+0x30>

000000e2 <move_forward>:
  e2:	0e 94 4a 00 	call	0x94	; 0x94 <stop_car>
  e6:	5f 9a       	sbi	0x0b, 7	; 11
  e8:	5e 98       	cbi	0x0b, 6	; 11
  ea:	08 95       	ret

000000ec <move_backwards>:
  ec:	0e 94 4a 00 	call	0x94	; 0x94 <stop_car>
  f0:	5e 9a       	sbi	0x0b, 6	; 11
  f2:	5f 98       	cbi	0x0b, 7	; 11
  f4:	08 95       	ret

000000f6 <__vector_3>:
  f6:	1f 92       	push	r1
  f8:	0f 92       	push	r0
  fa:	0f b6       	in	r0, 0x3f	; 63
  fc:	0f 92       	push	r0
  fe:	11 24       	eor	r1, r1
 100:	2f 93       	push	r18
 102:	3f 93       	push	r19
 104:	4f 93       	push	r20
 106:	5f 93       	push	r21
 108:	6f 93       	push	r22
 10a:	7f 93       	push	r23
 10c:	8f 93       	push	r24
 10e:	9f 93       	push	r25
 110:	af 93       	push	r26
 112:	bf 93       	push	r27
 114:	ef 93       	push	r30
 116:	ff 93       	push	r31
 118:	1f 9b       	sbis	0x03, 7	; 3
 11a:	03 c0       	rjmp	.+6      	; 0x122 <__vector_3+0x2c>
 11c:	0e 94 71 00 	call	0xe2	; 0xe2 <move_forward>
 120:	02 c0       	rjmp	.+4      	; 0x126 <__vector_3+0x30>
 122:	0e 94 76 00 	call	0xec	; 0xec <move_backwards>
 126:	1e 9b       	sbis	0x03, 6	; 3
 128:	03 c0       	rjmp	.+6      	; 0x130 <__vector_3+0x3a>
 12a:	0e 94 4a 00 	call	0x94	; 0x94 <stop_car>
 12e:	02 c0       	rjmp	.+4      	; 0x134 <__vector_3+0x3e>
 130:	0e 94 48 00 	call	0x90	; 0x90 <accelerate_car>
 134:	ff 91       	pop	r31
 136:	ef 91       	pop	r30
 138:	bf 91       	pop	r27
 13a:	af 91       	pop	r26
 13c:	9f 91       	pop	r25
 13e:	8f 91       	pop	r24
 140:	7f 91       	pop	r23
 142:	6f 91       	pop	r22
 144:	5f 91       	pop	r21
 146:	4f 91       	pop	r20
 148:	3f 91       	pop	r19
 14a:	2f 91       	pop	r18
 14c:	0f 90       	pop	r0
 14e:	0f be       	out	0x3f, r0	; 63
 150:	0f 90       	pop	r0
 152:	1f 90       	pop	r1
 154:	18 95       	reti

00000156 <_exit>:
 156:	f8 94       	cli

00000158 <__stop_program>:
 158:	ff cf       	rjmp	.-2      	; 0x158 <__stop_program>
