:100000000C9434000C9446000C9446000C947B0035
:100010000C9446000C9446000C9446000C94460048
:100020000C9446000C9446000C9446000C94460038
:100030000C9446000C9446000C9446000C94460028
:100040000C9446000C9446000C9446000C94460018
:100050000C9446000C9446000C9446000C94460008
:100060000C9446000C94460011241FBECFEFD8E03C
:10007000DEBFCDBF21E0A0E0B1E001C01D92A03005
:10008000B207E1F70E944E000C94AB000C94000004
:10009000299A089529985E985F980895CF93DF93E1
:1000A0001F92CDB7DEB71982F894269827985598F5
:1000B000569A579A219A80916800816080936800CF
:1000C00080916B00806C80936B0078940E944A0052
:1000D00089B185FB882780F9898389818111F8CFCF
:1000E000F5CF0E944A005F9A5E9808950E944A00E8
:1000F0005E9A5F9808951F920F920FB60F92112487
:100100002F933F934F935F936F937F938F939F931F
:10011000AF93BF93EF93FF931F9B03C00E947100A7
:1001200002C00E9476001E9B03C00E944A0002C0CB
:100130000E944800FF91EF91BF91AF919F918F91E5
:100140007F916F915F914F913F912F910F900FBED3
:0A0150000F901F901895F894FFCF50
:00000001FF
